{
  "transactions": [
    {
      "hash": "0xd7fc88cfa6c5a4e5a2c288e759cdfb8893cf2abe875b9462f00a01fa883dd145",
      "transactionType": "CALL",
      "contractName": null,
      "contractAddress": "0xb0eb6bc7715d0ced94de35e7381278937722849d",
      "function": "unlock(bytes16)",
      "arguments": [
        "0xef501a5af4a467001e25f38890b74fba00000000000000000000000000000000"
      ],
      "transaction": {
        "from": "0xa86ea1be0a43ea977dd7489c7c91247b1a7bc50b",
        "to": "0xb0eb6bc7715d0ced94de35e7381278937722849d",
        "gas": "0x818e",
        "value": "0x0",
        "input": "0xe1afb08cef501a5af4a467001e25f38890b74fba00000000000000000000000000000000",
        "nonce": "0x3c",
        "chainId": "0xaa36a7",
        "accessList": null,
        "type": null
      },
      "additionalContracts": [],
      "isFixedGasLimit": false
    }
  ],
  "receipts": [
    {
      "status": "0x1",
      "cumulativeGasUsed": "0xc1485c",
      "logs": [],
      "logsBloom": "0x00000000000000000000000000000000000000000000000000000000000000000000000000000000000000000000000000000000000000000000000000000000000000000000000000000000000000000000000000000000000000000000000000000000000000000000000000000000000000000000000000000000000000000000000000000000000000000000000000000000000000000000000000000000000000000000000000000000000000000000000000000000000000000000000000000000000000000000000000000000000000000000000000000000000000000000000000000000000000000000000000000000000000000000000000000000",
      "type": "0x2",
      "transactionHash": "0xd7fc88cfa6c5a4e5a2c288e759cdfb8893cf2abe875b9462f00a01fa883dd145",
      "transactionIndex": "0x58",
      "blockHash": "0x92f9cf450377ccded606b9fb1d7e64664fb69726527336a0d9906d249fc84280",
      "blockNumber": "0x5856dc",
      "gasUsed": "0x5dcd",
      "effectiveGasPrice": "0x4286d435",
      "from": "0xa86ea1be0a43ea977dd7489c7c91247b1a7bc50b",
      "to": "0xb0eb6bc7715d0ced94de35e7381278937722849d",
      "contractAddress": null
    }
  ],
  "libraries": [],
  "pending": [],
  "returns": {},
  "timestamp": 1714231408,
  "chain": 11155111,
  "commit": "ced5427"
}